10196826320001000404333370054 Borges e BemFica Ltda.             Araxa                         MG03366210722015010120151231331
11TIA NICA                          00037                      VILA SAO PEDRO 38183082                            003436621072
11GETULIO VARGAS                    00000SL206                 CENTRO         38183192                            003436621072
11JUVENAL PEREIRA MARQUES           00000                      ALVORADA       38180002                            003436621072
60M20150407BE1013101007000006190012D00445600446400012900100000000000020000000002033008344                                     
60A20150407BE101310100700000619F   000000001200                                                                               
60A20150407BE1013101007000006191800000000001200                                                                               
60A20150407BE1013101007000006191200000000001600                                                                               
60D20150407BE10131010070000061910002         000000000100000000000000003000000000000000000F   0000000000000                   
60D20150407BE10131010070000061910002         000000000100000000000000003000000000000000000F   0000000000000                   
60D20150407BE10131010070000061910003         00000000010000000000000000200000000000000020012000000000000024                   
60D20150407BE10131010070000061910003         00000000010000000000000000200000000000000020012000000000000024                   
60D20150407BE10131010070000061910004         00000000010000000000000000400000000000000040012000000000000048                   
60D20150407BE10131010070000061910005         00000000010000000000000000600000000000000060018000000000000108                   
60I20150407BE1013101007000006192D00446200110002         00000000010000000000000300000000000000F   000000000000                
60I20150407BE1013101007000006192D00446200210003         000000000100000000000002000000000002001200000000000024                
60I20150407BE1013101007000006192D00446300110004         000000000100000000000004000000000004001200000000000048                
60I20150407BE1013101007000006192D00446300210003         000000000100000000000002000000000002001200000000000024                
60I20150407BE1013101007000006192D00446300310002         00000000010000000000000300000000000000F   000000000000                
60I20150407BE1013101007000006192D00446300410005         000000000100000000000006000000000006001800000000000108                
60M20150428BE1013101007000006190012D00450300452200013300100000000000020000000002033015744                                     
60A20150428BE101310100700000619F   000000006000                                                                               
60D20150428BE10131010070000061910002         000000001000000000000000030000000000000000000F   0000000000000                   
60I20150428BE1013101007000006192D00450400110002         00000000100000000000003000000000000000F   000000000000                
60M20150430BE1013101007000006190012D00454600456000013500100000000000020000000002033022344                                     
60A20150430BE101310100700000619CANC000000001000                                                                               
60A20150430BE101310100700000619F   000000003800                                                                               
60A20150430BE1013101007000006191200000000004000                                                                               
60D20150430BE10131010070000061910002         000000000100000000000000003000000000000000000F   0000000000000                   
60D20150430BE10131010070000061910002         000000000100000000000000003000000000000000000F   0000000000000                   
60D20150430BE10131010070000061910002         000000000100000000000000003000000000000000000F   0000000000000                   
60D20150430BE10131010070000061910002         000000000100000000000000003000000000000000000F   0000000000000                   
60D20150430BE10131010070000061910002         000000000100000000000000003000000000000000000F   0000000000000                   
60D20150430BE10131010070000061910002         000000000300000000000000009000000000000000000F   0000000000000                   
60D20150430BE10131010070000061910003         00000000010000000000000000200000000000000020012000000000000024                   
60D20150430BE10131010070000061910003         00000000010000000000000000200000000000000020012000000000000024                   
60D20150430BE10131010070000061910003         00000000010000000000000000200000000000000020012000000000000024                   
60D20150430BE10131010070000061910003         00000000010000000000000000200000000000000020012000000000000024                   
60D20150430BE10131010070000061910003         00000000010000000000000000200000000000000020012000000000000024                   
60D20150430BE10131010070000061910003         00000000050000000000000001000000000000000100012000000000000024                   
60I20150430BE1013101007000006192D00454700110002         00000000010000000000000300000000000000F   000000000000                
60I20150430BE1013101007000006192D00454800110003         000000000100000000000002000000000002001200000000000024                
60I20150430BE1013101007000006192D00455000110003         000000000100000000000002000000000002001200000000000024                
60I20150430BE1013101007000006192D00455100110002         00000000010000000000000300000000000000F   000000000000                
60I20150430BE1013101007000006192D00455200110002         00000000010000000000000300000000000000F   000000000000                
60I20150430BE1013101007000006192D00455300110003         000000000100000000000002000000000002001200000000000024                
60I20150430BE1013101007000006192D00455400110002         00000000010000000000000300000000000000F   000000000000                
60I20150430BE1013101007000006192D00455500110002         00000000010000000000000300000000000000F   000000000000                
60I20150430BE1013101007000006192D00455600110003         000000000100000000000002000000000002001200000000000024                
60I20150430BE1013101007000006192D00455700110003         000000000100000000000002000000000002001200000000000024                
60I20150430BE1013101007000006192D00455800110002         00000000010000000000000300000000000000F   000000000000                
60I20150430BE1013101007000006192D00455800210002         000000000100000000000003000000000003001200000000000036                
60I20150430BE1013101007000006192D00455800310002         000000000100000000000003000000000003001200000000000036                
60I20150430BE1013101007000006192D00455900110003         000000000100000000000002000000000002001200000000000024                
60I20150430BE1013101007000006192D00455900210003         00000000010000000000000200000000000000F   000000000000                
60I20150430BE1013101007000006192D00455900310003         000000000100000000000002000000000002001200000000000024                
60I20150430BE1013101007000006192D00455900410003         000000000100000000000002000000000002001200000000000024                
60I20150430BE1013101007000006192D00455900510003         00000000010000000000000200000000000000F   000000000000                
60M20150503BE1013101007000006190012D00459300462200013700100000000000020000000002033036744                                     
60A20150503BE1013101007000006191800000000003600                                                                               
60A20150503BE1013101007000006191200000000004000                                                                               
60A20150503BE101310100700000619F   000000007800                                                                               
60A20150503BE101310100700000619CANC000000011200                                                                               
60D20150503BE10131010070000061910002         000000000100000000000000003000000000000000000F   0000000000000                   
60D20150503BE10131010070000061910002         000000000100000000000000003000000000000000000F   0000000000000                   
60D20150503BE10131010070000061910002         000000000100000000000000003000000000000000000F   0000000000000                   
60D20150503BE10131010070000061910002         000000000300000000000000009000000000000000000F   0000000000000                   
60D20150503BE10131010070000061910002         000000000100000000000000003000000000000000000F   0000000000000                   
60D20150503BE10131010070000061910002         000000000100000000000000003000000000000000000F   0000000000000                   
60D20150503BE10131010070000061910002         000000000100000000000000003000000000000000000F   0000000000000                   
60D20150503BE10131010070000061910002         000000000100000000000000003000000000000000000F   0000000000000                   
60D20150503BE10131010070000061910002         000000000100000000000000003000000000000000000F   0000000000000                   
60D20150503BE10131010070000061910002         000000000100000000000000002700000000000000000F   0000000000000                   
60D20150503BE10131010070000061910002         000000000100000000000000003000000000000000000F   0000000000000                   
60D20150503BE10131010070000061910003         00000000030000000000000000600000000000000060012000000000000072                   
60D20150503BE10131010070000061910003         00000000010000000000000000200000000000000020012000000000000024                   
60D20150503BE10131010070000061910003         00000000010000000000000000200000000000000020012000000000000024                   
60D20150503BE10131010070000061910003         00000000010000000000000000200000000000000020012000000000000024                   
60D20150503BE10131010070000061910003         00000000010000000000000000180000000000000018012000000000000022                   
60D20150503BE10131010070000061910003         00000000010000000000000000200000000000000020012000000000000024                   
60D20150503BE10131010070000061910003         00000000010000000000000000180000000000000018012000000000000022                   
60D20150503BE10131010070000061910004         00000000010000000000000000400000000000000040012000000000000048                   
60D20150503BE10131010070000061910005         00000000010000000000000000600000000000000060018000000000000108                   
60D20150503BE10131010070000061910005         00000000010000000000000000600000000000000060018000000000000108                   
60D20150503BE10131010070000061910005         00000000010000000000000000582000000000000058218000000000000105                   
60D20150503BE10131010070000061910005         00000000060000000000000003400000000000000340018000000000000108                   
60D20150503BE10131010070000061910005         00000000030000000000000001788000000000000178818000000000000106                   
60I20150503BE1013101007000006192D00459400110002         00000000010000000000000300000000000000F   000000000000                
60I20150503BE1013101007000006192D00459400210005         000000000100000000000006000000000006001800000000000108                
60I20150503BE1013101007000006192D00459500110004         000000000100000000000004000000000004001200000000000048                
60I20150503BE1013101007000006192D00459600110002         00000000010000000000000300000000000000F   000000000000                
60I20150503BE1013101007000006192D00459700110003         000000000300000000000006000000000006001200000000000072                
60I20150503BE1013101007000006192D00460000110005         000000000100000000000006000000000006001800000000000108                
60I20150503BE1013101007000006192D00460100110002         00000000010000000000000300000000000000F   000000000000                
60I20150503BE1013101007000006192D00460100210003         000000000100000000000002000000000002001200000000000024                
60I20150503BE1013101007000006192D00460200110002         00000000010000000000000300000000000000F   000000000000                
60I20150503BE1013101007000006192D00460200210002         00000000020000000000000600000000000000F   000000000000                
60I20150503BE1013101007000006192D00460200310003         000000000100000000000002000000000002001200000000000024                
60I20150503BE1013101007000006192D00460300110002         00000000010000000000000300000000000000F   000000000000                
60I20150503BE1013101007000006192D00460400110003         000000000100000000000002000000000002001200000000000024                
60I20150503BE1013101007000006192D00460500110002         00000000010000000000000300000000000000F   000000000000                
60I20150503BE1013101007000006192D00460600110002         00000000010000000000000300000000000000F   000000000000                
60I20150503BE1013101007000006192D00460700110002         00000000010000000000000300000000000000F   000000000000                
60I20150503BE1013101007000006192D00460800110002         00000000010000000000000300000000000000F   000000000000                
60I20150503BE1013101007000006192D00460800210003         000000000100000000000001800000000001801200000000000022                
60I20150503BE1013101007000006192D00460800310005         000000000100000000000005820000000005821800000000000105                
60I20150503BE1013101007000006192D00461000110003         000000000100000000000002000000000002001200000000000024                
60I20150503BE1013101007000006192D00461100110002         00000000010000000000000270000000000000F   000000000000                
60I20150503BE1013101007000006192D00461200110003         000000000100000000000001800000000001801200000000000022                
60I20150503BE1013101007000006192D00461300110005         000000000100000000000006000000000006001800000000000108                
60I20150503BE1013101007000006192D00461300210005         00000000010000000000000600000000000000F   000000000000                
60I20150503BE1013101007000006192D00461300310005         000000000100000000000004000000000004001200000000000048                
60I20150503BE1013101007000006192D00461300410005         000000000100000000000006000000000006001200000000000072                
60I20150503BE1013101007000006192D00461300510005         000000000100000000000006000000000006001200000000000072                
60I20150503BE1013101007000006192D00461300610005         000000000100000000000006000000000006001200000000000072                
60I20150503BE1013101007000006192D00461400110005         000000000100000000000005880000000005881800000000000106                
60I20150503BE1013101007000006192D00461400210005         000000000100000000000006000000000006001200000000000072                
60I20150503BE1013101007000006192D00461400310005         00000000010000000000000600000000000000F   000000000000                
60I20150503BE1013101007000006192D00461500110002         00000000010000000000000300000000000000F   000000000000                
60M20150505BE1013101007000006190012D00465700472100013900100000000000020000000002033069244                                     
60A20150505BE101310100700000619F   000000002400                                                                               
60A20150505BE101310100700000619CANC000000010000                                                                               
60A20150505BE1013101007000006191200000000012400                                                                               
60A20150505BE1013101007000006191800000000018000                                                                               
60D20150505BE10131010070000061910002         000000000100000000000000003000000000000000000F   0000000000000                   
60D20150505BE10131010070000061910002         000000000100000000000000003000000000000000000F   0000000000000                   
60D20150505BE10131010070000061910002         000000000100000000000000003000000000000000000F   0000000000000                   
60D20150505BE10131010070000061910002         000000000100000000000000003000000000000000000F   0000000000000                   
60D20150505BE10131010070000061910002         000000000100000000000000003000000000000000000F   0000000000000                   
60D20150505BE10131010070000061910002         000000000200000000000000006000000000000000000F   0000000000000                   
60D20150505BE10131010070000061910002         000000000100000000000000003000000000000000000F   0000000000000                   
60D20150505BE10131010070000061910002         000000000100000000000000003000000000000000000F   0000000000000                   
60D20150505BE10131010070000061910002         000000000100000000000000003000000000000000000F   0000000000000                   
60D20150505BE10131010070000061910003         00000000010000000000000000200000000000000020012000000000000024                   
60D20150505BE10131010070000061910003         00000000010000000000000000200000000000000020012000000000000024                   
60D20150505BE10131010070000061910003         00000000010000000000000000200000000000000020012000000000000024                   
60D20150505BE10131010070000061910003         00000000010000000000000000200000000000000020012000000000000024                   
60D20150505BE10131010070000061910003         00000000010000000000000000200000000000000020012000000000000024                   
60D20150505BE10131010070000061910003         00000000010000000000000000200000000000000020012000000000000024                   
60D20150505BE10131010070000061910003         00000000010000000000000000200000000000000020012000000000000024                   
60D20150505BE10131010070000061910003         00000000010000000000000000200000000000000020012000000000000024                   
60D20150505BE10131010070000061910003         00000000010000000000000000200000000000000020012000000000000024                   
60D20150505BE10131010070000061910003         00000000010000000000000000200000000000000020012000000000000024                   
60D20150505BE10131010070000061910003         00000000010000000000000000200000000000000020012000000000000024                   
60D20150505BE10131010070000061910003         00000000010000000000000000200000000000000020012000000000000024                   
60D20150505BE10131010070000061910003         00000000020000000000000000400000000000000040012000000000000048                   
60D20150505BE10131010070000061910003         00000000010000000000000000200000000000000020012000000000000024                   
60D20150505BE10131010070000061910003         00000000010000000000000000200000000000000020012000000000000024                   
60D20150505BE10131010070000061910003         00000000010000000000000000200000000000000020012000000000000024                   
60D20150505BE10131010070000061910003         00000000010000000000000000200000000000000020012000000000000024                   
60D20150505BE10131010070000061910003         00000000020000000000000000400000000000000040012000000000000024                   
60D20150505BE10131010070000061910003         00000000030000000000000000600000000000000060012000000000000024                   
60D20150505BE10131010070000061910003         00000000010000000000000000200000000000000020012000000000000024                   
60D20150505BE10131010070000061910003         00000000020000000000000000400000000000000040012000000000000024                   
60D20150505BE10131010070000061910003         00000000020000000000000000400000000000000040012000000000000024                   
60D20150505BE10131010070000061910004         00000000010000000000000000400000000000000040012000000000000048                   
60D20150505BE10131010070000061910004         00000000010000000000000000400000000000000040012000000000000048                   
60D20150505BE10131010070000061910004         00000000010000000000000000400000000000000040012000000000000048                   
60D20150505BE10131010070000061910004         00000000010000000000000000400000000000000040012000000000000048                   
60D20150505BE10131010070000061910004         00000000010000000000000000400000000000000040012000000000000048                   
60D20150505BE10131010070000061910005         00000000010000000000000000600000000000000060018000000000000108                   
60D20150505BE10131010070000061910005         00000000010000000000000000600000000000000060018000000000000108                   
60D20150505BE10131010070000061910005         00000000010000000000000000600000000000000060018000000000000108                   
60D20150505BE10131010070000061910005         00000000010000000000000000600000000000000060018000000000000108                   
60D20150505BE10131010070000061910005         00000000010000000000000000600000000000000060018000000000000108                   
60D20150505BE10131010070000061910005         00000000010000000000000000600000000000000060018000000000000108                   
60D20150505BE10131010070000061910005         00000000010000000000000000600000000000000060018000000000000108                   
60D20150505BE10131010070000061910005         00000000010000000000000000600000000000000060018000000000000108                   
60D20150505BE10131010070000061910005         00000000010000000000000000600000000000000060018000000000000108                   
60D20150505BE10131010070000061910005         00000000010000000000000000600000000000000060018000000000000108                   
60D20150505BE10131010070000061910005         00000000010000000000000000600000000000000060018000000000000108                   
60D20150505BE10131010070000061910005         00000000010000000000000000600000000000000060018000000000000108                   
60D20150505BE10131010070000061910005         00000000020000000000000001080000000000000108018000000000000194                   
60D20150505BE10131010070000061910005         00000000010000000000000000600000000000000060018000000000000108                   
60D20150505BE10131010070000061910005         00000000020000000000000001200000000000000120018000000000000108                   
60D20150505BE10131010070000061910005         00000000010000000000000000600000000000000060018000000000000108                   
60I20150505BE1013101007000006192D00465800110003         000000000100000000000002000000000002001200000000000024                
60I20150505BE1013101007000006192D00465900110003         000000000100000000000002000000000002001200000000000024                
60I20150505BE1013101007000006192D00466000110003         000000000100000000000002000000000002001200000000000024                
60I20150505BE1013101007000006192D00466100110003         000000000100000000000002000000000002001200000000000024                
60I20150505BE1013101007000006192D00466200110005         000000000100000000000006000000000006001800000000000108                
60I20150505BE1013101007000006192D00466300110003         000000000100000000000002000000000002001200000000000024                
60I20150505BE1013101007000006192D00466400110003         000000000100000000000002000000000002001200000000000024                
60I20150505BE1013101007000006192D00466500110003         000000000100000000000002000000000002001200000000000024                
60I20150505BE1013101007000006192D00466600110005         000000000100000000000006000000000006001800000000000108                
60I20150505BE1013101007000006192D00466700110003         000000000100000000000002000000000002001200000000000024                
60I20150505BE1013101007000006192D00466800110005         000000000100000000000006000000000006001800000000000108                
60I20150505BE1013101007000006192D00466900110005         000000000100000000000006000000000006001800000000000108                
60I20150505BE1013101007000006192D00467000110005         000000000100000000000006000000000006001800000000000108                
60I20150505BE1013101007000006192D00467100110005         000000000100000000000006000000000006001800000000000108                
60I20150505BE1013101007000006192D00467200110004         000000000100000000000004000000000004001200000000000048                
60I20150505BE1013101007000006192D00467800110003         000000000100000000000002000000000002001200000000000024                
60I20150505BE1013101007000006192D00468100110002         00000000010000000000000300000000000000F   000000000000                
60I20150505BE1013101007000006192D00468100210003         000000000100000000000002000000000002001200000000000024                
60I20150505BE1013101007000006192D00468300110005         000000000100000000000006000000000006001800000000000108                
60I20150505BE1013101007000006192D00468500110003         000000000100000000000002000000000002001200000000000024                
60I20150505BE1013101007000006192D00468700110005         000000000100000000000006000000000006001800000000000108                
60I20150505BE1013101007000006192D00468900110004         000000000100000000000004000000000004001200000000000048                
60I20150505BE1013101007000006192D00468900210005         000000000100000000000006000000000006001800000000000108                
60I20150505BE1013101007000006192D00469100110002         00000000010000000000000300000000000000F   000000000000                
60I20150505BE1013101007000006192D00469300110004         000000000100000000000004000000000004001200000000000048                
60I20150505BE1013101007000006192D00469300210005         000000000100000000000006000000000006001800000000000108                
60I20150505BE1013101007000006192D00469500110005         000000000100000000000006000000000006001800000000000108                
60I20150505BE1013101007000006192D00469700110003         000000000100000000000002000000000002001200000000000024                
60I20150505BE1013101007000006192D00469900110005         000000000100000000000006000000000006001800000000000108                
60I20150505BE1013101007000006192D00470000110003         000000000200000000000004000000000004001200000000000048                
60I20150505BE1013101007000006192D00470100110003         000000000100000000000002000000000002001200000000000024                
60I20150505BE1013101007000006192D00470100210005         000000000200000000000010800000000010801800000000000194                
60I20150505BE1013101007000006192D00470200110004         000000000100000000000004000000000004001200000000000048                
60I20150505BE1013101007000006192D00470300110002         00000000010000000000000300000000000000F   000000000000                
60I20150505BE1013101007000006192D00470400110003         000000000100000000000002000000000002001200000000000024                
60I20150505BE1013101007000006192D00470500110003         000000000100000000000002000000000002001200000000000024                
60I20150505BE1013101007000006192D00470600110004         000000000100000000000004000000000004001200000000000048                
60I20150505BE1013101007000006192D00470600210005         000000000100000000000006000000000006001800000000000108                
60I20150505BE1013101007000006192D00470700110003         000000000100000000000002000000000002001200000000000024                
60I20150505BE1013101007000006192D00470700210002         00000000010000000000000300000000000000F   000000000000                
60I20150505BE1013101007000006192D00470800110003         000000000100000000000002000000000002001200000000000024                
60I20150505BE1013101007000006192D00470800210002         00000000010000000000000300000000000000F   000000000000                
60I20150505BE1013101007000006192D00470800310003         000000000100000000000002000000000002001200000000000024                
60I20150505BE1013101007000006192D00470900110003         000000000100000000000002000000000002001200000000000024                
60I20150505BE1013101007000006192D00470900210003         000000000100000000000002000000000002001200000000000024                
60I20150505BE1013101007000006192D00470900310002         00000000010000000000000300000000000000F   000000000000                
60I20150505BE1013101007000006192D00470900410002         00000000010000000000000300000000000000F   000000000000                
60I20150505BE1013101007000006192D00470900510003         000000000100000000000002000000000002001200000000000024                
60I20150505BE1013101007000006192D00471000110002         00000000010000000000000300000000000000F   000000000000                
60I20150505BE1013101007000006192D00471100110002         00000000010000000000000300000000000000F   000000000000                
60I20150505BE1013101007000006192D00471200110002         00000000010000000000000300000000000000F   000000000000                
60I20150505BE1013101007000006192D00471300110003         000000000100000000000002000000000002001200000000000024                
60I20150505BE1013101007000006192D00471400110003         000000000100000000000002000000000002001200000000000024                
60I20150505BE1013101007000006192D00471400210003         000000000100000000000002000000000002001200000000000024                
60I20150505BE1013101007000006192D00471500110005         000000000100000000000006000000000006001800000000000108                
60I20150505BE1013101007000006192D00471500210005         000000000100000000000006000000000006001800000000000108                
60I20150505BE1013101007000006192D00471600110005         000000000100000000000006000000000006001800000000000108                
60I20150505BE1013101007000006192D00471800110003         000000000100000000000002000000000002001200000000000024                
60I20150505BE1013101007000006192D00471800210003         000000000100000000000002000000000002001200000000000024                
60M20150506BE1013101007000006190012D00472400476600014000100000000000020000000002033079144                                     
60A20150506BE1013101007000006191800000000001200                                                                               
60A20150506BE101310100700000619F   000000001800                                                                               
60A20150506BE1013101007000006191200000000004800                                                                               
60A20150506BE101310100700000619CANC000000012000                                                                               
60D20150506BE10131010070000061910002         000000000400000000000000012000000000000000000F   0000000000000                   
60D20150506BE10131010070000061910002         000000000200000000000000006000000000000000000F   0000000000000                   
60D20150506BE10131010070000061910002         000000000100000000000000003000000000000000000F   0000000000000                   
60D20150506BE10131010070000061910002         000000000100000000000000003000000000000000000F   0000000000000                   
60D20150506BE10131010070000061910002         000000000100000000000000003000000000000000000F   0000000000000                   
60D20150506BE10131010070000061910002         000000000100000000000000003000000000000000000F   0000000000000                   
60D20150506BE10131010070000061910002         000000000100000000000000003000000000000000000F   0000000000000                   
60D20150506BE10131010070000061910002         000000000200000000000000006000000000000000000F   0000000000000                   
60D20150506BE10131010070000061910002         000000000100000000000000003000000000000000000F   0000000000000                   
60D20150506BE10131010070000061910002         000000000100000000000000003000000000000000000F   0000000000000                   
60D20150506BE10131010070000061910003         00000000010000000000000000200000000000000020012000000000000024                   
60D20150506BE10131010070000061910003         00000000010000000000000000200000000000000020012000000000000024                   
60D20150506BE10131010070000061910003         00000000010000000000000000200000000000000020012000000000000024                   
60D20150506BE10131010070000061910003         00000000010000000000000000200000000000000020012000000000000024                   
60D20150506BE10131010070000061910003         00000000010000000000000000200000000000000020012000000000000024                   
60D20150506BE10131010070000061910003         00000000010000000000000000200000000000000020012000000000000024                   
60D20150506BE10131010070000061910003         00000000020000000000000000400000000000000040012000000000000024                   
60D20150506BE10131010070000061910003         00000000010000000000000000200000000000000020012000000000000024                   
60D20150506BE10131010070000061910003         00000000010000000000000000200000000000000020012000000000000024                   
60D20150506BE10131010070000061910003         00000000010000000000000000200000000000000020012000000000000024                   
60D20150506BE10131010070000061910004         00000000010000000000000000400000000000000040012000000000000048                   
60D20150506BE10131010070000061910004         00000000010000000000000000400000000000000040012000000000000048                   
60D20150506BE10131010070000061910004         00000000010000000000000000400000000000000040012000000000000048                   
60D20150506BE10131010070000061910004         00000000010000000000000000400000000000000040012000000000000048                   
60D20150506BE10131010070000061910004         00000000010000000000000000400000000000000040012000000000000048                   
60D20150506BE10131010070000061910005         00000000010000000000000000600000000000000060018000000000000108                   
60D20150506BE10131010070000061910005         00000000010000000000000000600000000000000060018000000000000108                   
60I20150506BE1013101007000006192D00472600110002         00000000040000000000001200000000000000F   000000000000                
60I20150506BE1013101007000006192D00472800110002         00000000020000000000000600000000000000F   000000000000                
60I20150506BE1013101007000006192D00472800210004         000000000100000000000004000000000004001200000000000048                
60I20150506BE1013101007000006192D00473100110002         00000000010000000000000300000000000000F   000000000000                
60I20150506BE1013101007000006192D00473300110003         000000000100000000000002000000000002001200000000000024                
60I20150506BE1013101007000006192D00473400110003         000000000100000000000002000000000002001200000000000024                
60I20150506BE1013101007000006192D00473400210004         000000000100000000000004000000000004001200000000000048                
60I20150506BE1013101007000006192D00473500110004         000000000100000000000004000000000004001200000000000048                
60I20150506BE1013101007000006192D00473600110004         000000000100000000000004000000000004001200000000000048                
60I20150506BE1013101007000006192D00473600210003         000000000100000000000002000000000002001200000000000024                
60I20150506BE1013101007000006192D00473700110003         000000000100000000000002000000000002001200000000000024                
60I20150506BE1013101007000006192D00473800110002         00000000010000000000000300000000000000F   000000000000                
60I20150506BE1013101007000006192D00473900110003         000000000100000000000002000000000002001200000000000024                
60I20150506BE1013101007000006192D00474000110003         000000000100000000000002000000000002001200000000000024                
60I20150506BE1013101007000006192D00474100110002         00000000010000000000000300000000000000F   000000000000                
60I20150506BE1013101007000006192D00474200110005         000000000100000000000006000000000006001800000000000108                
60I20150506BE1013101007000006192D00474400110002         00000000010000000000000300000000000000F   000000000000                
60I20150506BE1013101007000006192D00474500110002         00000000010000000000000300000000000000F   000000000000                
60I20150506BE1013101007000006192D00474600110003         000000000100000000000002000000000002001200000000000024                
60I20150506BE1013101007000006192D00474600210003         000000000100000000000002000000000002001200000000000024                
60I20150506BE1013101007000006192D00474700110002         00000000010000000000000300000000000000F   000000000000                
60I20150506BE1013101007000006192D00474700210002         00000000010000000000000300000000000000F   000000000000                
60I20150506BE1013101007000006192D00474800110002         00000000010000000000000300000000000000F   000000000000                
60I20150506BE1013101007000006192D00474900110003         000000000100000000000002000000000002001200000000000024                
60I20150506BE1013101007000006192D00475300110003         000000000100000000000002000000000002001200000000000024                
60I20150506BE1013101007000006192D00475500110002         00000000010000000000000300000000000000F   000000000000                
60I20150506BE1013101007000006192D00475600110005         000000000100000000000006000000000006001800000000000108                
60I20150506BE1013101007000006192D00476500110003         000000000100000000000002000000000002001200000000000024                
60I20150506BE1013101007000006192D00476500210004         000000000100000000000004000000000004001200000000000048                
60M20150508BE1013101007000006190012D00479400483000014200100000000000020000000002033130044                                     
60A20150508BE101310100700000619F   000000001600                                                                               
60A20150508BE101310100700000619CANC000000002000                                                                               
60A20150508BE1013101007000006191200000000009200                                                                               
60A20150508BE1013101007000006191800000000012000                                                                               
60D20150508BE10131010070000061910002         000000000100000000000000003000000000000000000F   0000000000000                   
60D20150508BE10131010070000061910002         000000000100000000000000003000000000000000000F   0000000000000                   
60D20150508BE10131010070000061910003         00000000010000000000000000200000000000000020012000000000000024                   
60D20150508BE10131010070000061910003         00000000010000000000000000200000000000000020012000000000000024                   
60D20150508BE10131010070000061910003         00000000020000000000000000400000000000000040012000000000000024                   
60D20150508BE10131010070000061910003         00000000020000000000000000400000000000000040012000000000000024                   
60D20150508BE10131010070000061910003         00000000020000000000000000400000000000000040012000000000000048                   
60D20150508BE10131010070000061910003         00000000010000000000000000200000000000000020012000000000000024                   
60D20150508BE10131010070000061910003         00000000010000000000000000200000000000000020012000000000000024                   
60D20150508BE10131010070000061910003         00000000010000000000000000200000000000000020012000000000000024                   
60D20150508BE10131010070000061910003         00000000010000000000000000200000000000000020012000000000000024                   
60D20150508BE10131010070000061910004         00000000020000000000000000800000000000000080012000000000000096                   
60D20150508BE10131010070000061910004         00000000020000000000000000800000000000000080012000000000000096                   
60D20150508BE10131010070000061910004         00000000020000000000000000800000000000000080012000000000000096                   
60D20150508BE10131010070000061910004         00000000010000000000000000400000000000000040012000000000000048                   
60D20150508BE10131010070000061910005         00000000020000000000000001200000000000000120018000000000000216                   
60D20150508BE10131010070000061910005         00000000010000000000000000600000000000000060018000000000000108                   
60D20150508BE10131010070000061910005         00000000020000000000000001200000000000000120018000000000000216                   
60D20150508BE10131010070000061910005         00000000020000000000000001200000000000000120018000000000000216                   
60D20150508BE10131010070000061910005         00000000010000000000000000600000000000000060018000000000000108                   
60D20150508BE10131010070000061910005         00000000010000000000000000600000000000000060018000000000000108                   
60D20150508BE10131010070000061910005         00000000010000000000000000600000000000000060018000000000000108                   
60D20150508BE10131010070000061910005         00000000010000000000000000600000000000000060018000000000000108                   
60I20150508BE1013101007000006192D00479600110003         000000000100000000000002000000000002001200000000000024                
60I20150508BE1013101007000006192D00479700110003         000000000100000000000002000000000002001200000000000024                
60I20150508BE1013101007000006192D00479800110003         000000000100000000000002000000000002001200000000000024                
60I20150508BE1013101007000006192D00479800210003         00000000010000000000000200000000000000F   000000000000                
60I20150508BE1013101007000006192D00479900110003         000000000100000000000002000000000002001200000000000024                
60I20150508BE1013101007000006192D00479900210003         000000000100000000000002000000000002001200000000000024                
60I20150508BE1013101007000006192D00480000110004         000000000200000000000008000000000008001200000000000096                
60I20150508BE1013101007000006192D00480100110003         000000000200000000000004000000000004001200000000000048                
60I20150508BE1013101007000006192D00480100210002         00000000010000000000000300000000000000F   000000000000                
60I20150508BE1013101007000006192D00480100310005         000000000200000000000012000000000012001800000000000216                
60I20150508BE1013101007000006192D00480200110005         000000000100000000000006000000000006001800000000000108                
60I20150508BE1013101007000006192D00480300110005         000000000200000000000012000000000012001800000000000216                
60I20150508BE1013101007000006192D00480400110004         000000000200000000000008000000000008001200000000000096                
60I20150508BE1013101007000006192D00480500110005         000000000200000000000012000000000012001800000000000216                
60I20150508BE1013101007000006192D00480600110004         000000000200000000000008000000000008001200000000000096                
60I20150508BE1013101007000006192D00480700110004         000000000100000000000004000000000004001200000000000048                
60I20150508BE1013101007000006192D00480800110005         000000000100000000000006000000000006001800000000000108                
60I20150508BE1013101007000006192D00480900110005         000000000100000000000006000000000006001800000000000108                
60I20150508BE1013101007000006192D00481400110003         000000000100000000000002000000000002001200000000000024                
60I20150508BE1013101007000006192D00481600110003         000000000100000000000002000000000002001200000000000024                
60I20150508BE1013101007000006192D00482200110002         00000000010000000000000300000000000000F   000000000000                
60I20150508BE1013101007000006192D00482300110005         000000000100000000000006000000000006001800000000000108                
60I20150508BE1013101007000006192D00482400110003         000000000100000000000002000000000002001200000000000024                
60I20150508BE1013101007000006192D00482600110005         000000000100000000000006000000000006001800000000000108                
60I20150508BE1013101007000006192D00482800110003         000000000100000000000002000000000002001200000000000024                
60M20150521BE1013101007000006190012D00487800488400014600100000000000020000000002033140744                                     
60A20150521BE101310100700000619CANC000000000400                                                                               
60A20150521BE101310100700000619F   000000001200                                                                               
60A20150521BE1013101007000006191800000000001200                                                                               
60A20150521BE1013101007000006191200000000002400                                                                               
60D20150521BE10131010070000061910002         000000000100000000000000003000000000000000000F   0000000000000                   
60D20150521BE10131010070000061910002         000000000100000000000000003000000000000000000F   0000000000000                   
60D20150521BE10131010070000061910003         00000000010000000000000000200000000000000020012000000000000024                   
60D20150521BE10131010070000061910003         00000000010000000000000000200000000000000020012000000000000024                   
60D20150521BE10131010070000061910003         00000000050000000000000001000000000000000100012000000000000024                   
60D20150521BE10131010070000061910005         00000000010000000000000000600000000000000060018000000000000108                   
60I20150521BE1013101007000006192D00487900110003         000000000100000000000002000000000002001200000000000024                
60I20150521BE1013101007000006192D00488000110003         000000000100000000000002000000000002001200000000000024                
60I20150521BE1013101007000006192D00488100110003         000000000100000000000002000000000002001200000000000024                
60I20150521BE1013101007000006192D00488100210002         00000000010000000000000300000000000000F   000000000000                
60I20150521BE1013101007000006192D00488100310003         000000000400000000000008000000000008001200000000000096                
60I20150521BE1013101007000006192D00488200110002         00000000010000000000000300000000000000F   000000000000                
60I20150521BE1013101007000006192D00488300110005         000000000100000000000006000000000006001800000000000108                
60M20150522BE1013101007000006190012D00488700489600014700100000000000020000000002033142144                                     
60A20150522BE101310100700000619F   000000001200                                                                               
60A20150522BE1013101007000006191200000000001600                                                                               
60M20150526BE1013101007000006190012D00491400492900014900100000000000020000000002033168244                                     
60A20150526BE101310100700000619CANC000000000800                                                                               
60A20150526BE1013101007000006191800000000006000                                                                               
60A20150526BE101310100700000619F   000000006600                                                                               
60A20150526BE1013101007000006191200000000014800                                                                               
60D20150526BE10131010070000061910002         000000000100000000000000003000000000000000000F   0000000000000                   
60D20150526BE10131010070000061910002         000000000200000000000000006000000000000000000F   0000000000000                   
60D20150526BE10131010070000061910002         000000000100000000000000003000000000000000000F   0000000000000                   
60D20150526BE10131010070000061910002         000000000300000000000000009000000000000000000F   0000000000000                   
60D20150526BE10131010070000061910002         000000000200000000000000006000000000000000000F   0000000000000                   
60D20150526BE10131010070000061910002         000000000200000000000000006000000000000000000F   0000000000000                   
60D20150526BE10131010070000061910003         00000000030000000000000000600000000000000060012000000000000024                   
60D20150526BE10131010070000061910003         00000000100000000000000002000000000000000200012000000000000240                   
60D20150526BE10131010070000061910003         00000000010000000000000000200000000000000020012000000000000024                   
60D20150526BE10131010070000061910003         00000000010000000000000000200000000000000020012000000000000024                   
60D20150526BE10131010070000061910003         00000000010000000000000000200000000000000020012000000000000024                   
60D20150526BE10131010070000061910003         00000000010000000000000000200000000000000020012000000000000024                   
60D20150526BE10131010070000061910004         00000000010000000000000000400000000000000040012000000000000048                   
60D20150526BE10131010070000061910004         00000000100000000000000004000000000000000400012000000000000192                   
60D20150526BE10131010070000061910005         00000000040000000000000002160000000000000216018000000000000389                   
60D20150526BE10131010070000061910005         00000000010000000000000000600000000000000060018000000000000108                   
60I20150526BE1013101007000006192D00491500110003         000000000100000000000002000000000002001200000000000024                
60I20150526BE1013101007000006192D00491500210002         00000000010000000000000300000000000000F   000000000000                
60I20150526BE1013101007000006192D00491500310003         000000000200000000000004000000000004001200000000000048                
60I20150526BE1013101007000006192D00491600110003         000000001000000000000020000000000020001200000000000240                
60I20150526BE1013101007000006192D00491700110003         000000000100000000000002000000000002001200000000000024                
60I20150526BE1013101007000006192D00491800110002         00000000020000000000000600000000000000F   000000000000                
60I20150526BE1013101007000006192D00491900110002         00000000010000000000000300000000000000F   000000000000                
60I20150526BE1013101007000006192D00491900210005         000000000400000000000021600000000021601800000000000389                
60I20150526BE1013101007000006192D00492000110002         00000000010000000000000300000000000000F   000000000000                
60I20150526BE1013101007000006192D00492000210002         00000000020000000000000600000000000000F   000000000000                
60I20150526BE1013101007000006192D00492000310003         000000000100000000000002000000000002001200000000000024                
60I20150526BE1013101007000006192D00492000410004         000000000100000000000004000000000004001200000000000048                
60I20150526BE1013101007000006192D00492200110003         000000000100000000000002000000000002001200000000000024                
60I20150526BE1013101007000006192D00492300110002         00000000020000000000000600000000000000F   000000000000                
60I20150526BE1013101007000006192D00492300210004         000000000400000000000016000000000016001200000000000192                
60I20150526BE1013101007000006192D00492300310004         000000000600000000000024000000000024001200000000000288                
60I20150526BE1013101007000006192D00492400110005         000000000100000000000006000000000006001800000000000108                
60I20150526BE1013101007000006192D00492500110002         00000000020000000000000600000000000000F   000000000000                
60I20150526BE1013101007000006192D00492800110003         000000000100000000000002000000000002001200000000000024                
60M20150527BE1013101007000006190012D00493200494100015000100000000000020000000002033169444                                     
60A20150527BE1013101007000006191200000000001200                                                                               
60A20150527BE101310100700000619F   000000001200                                                                               
60D20150527BE10131010070000061910002         000000000100000000000000003000000000000000000F   0000000000000                   
60D20150527BE10131010070000061910002         000000000100000000000000003000000000000000000F   0000000000000                   
60D20150527BE10131010070000061910003         00000000010000000000000000200000000000000020012000000000000024                   
60D20150527BE10131010070000061910003         00000000010000000000000000200000000000000020012000000000000024                   
60D20150527BE10131010070000061910003         00000000010000000000000000200000000000000020012000000000000024                   
60I20150527BE1013101007000006192D00493300110002         00000000010000000000000300000000000000F   000000000000                
60I20150527BE1013101007000006192D00493400110003         000000000100000000000002000000000002001200000000000024                
60I20150527BE1013101007000006192D00493500110002         00000000010000000000000300000000000000F   000000000000                
60I20150527BE1013101007000006192D00493600110003         000000000100000000000002000000000002001200000000000024                
60I20150527BE1013101007000006192D00493700110003         000000000100000000000002000000000002001200000000000024                
60M20150529BE1013101007000006190012D00496200497800015200100000000000020000000002033230344                                     
60A20150529BE1013101007000006191200000000004000                                                                               
60A20150529BE101310100700000619F   000000005400                                                                               
60A20150529BE1013101007000006191800000000043200                                                                               
60D20150529BE10131010070000061910002         000000000100000000000000003000000000000000000F   0000000000000                   
60D20150529BE10131010070000061910002         000000000100000000000000003000000000000000000F   0000000000000                   
60D20150529BE10131010070000061910002         000000000100000000000000003000000000000000000F   0000000000000                   
60D20150529BE10131010070000061910002         000000000200000000000000006000000000000000000F   0000000000000                   
60D20150529BE10131010070000061910002         000000000200000000000000006000000000000000000F   0000000000000                   
60D20150529BE10131010070000061910002         000000000100000000000000003000000000000000000F   0000000000000                   
60D20150529BE10131010070000061910002         000000000100000000000000003000000000000000000F   0000000000000                   
60D20150529BE10131010070000061910003         00000000010000000000000000200000000000000020012000000000000024                   
60D20150529BE10131010070000061910003         00000000010000000000000000200000000000000020012000000000000024                   
60D20150529BE10131010070000061910004         00000000010000000000000000360000000000000036012000000000000043                   
60D20150529BE10131010070000061910004         00000000030000000000000001200000000000000120012000000000000144                   
60D20150529BE10131010070000061910005         00000000010000000000000000600000000000000060018000000000000108                   
60D20150529BE10131010070000061910005         00000000100000000000000006000000000000000600018000000000001080                   
60D20150529BE10131010070000061910005         00000000010000000000000000600000000000000060018000000000000108                   
60D20150529BE10131010070000061910005         00000000010000000000000000600000000000000060018000000000000108                   
60D20150529BE10131010070000061910005         00000000010000000000000000600000000000000060018000000000000108                   
60D20150529BE10131010070000061910005         00000000060000000000000003600000000000000360018000000000000648                   
60D20150529BE10131010070000061910005         00000000050000000000000003000000000000000300018000000000000540                   
60D20150529BE10131010070000061910005         00000000100000000000000006000000000000000600018000000000001080                   
60D20150529BE10131010070000061910005         00000000010000000000000000600000000000000060018000000000000108                   
60I20150529BE1013101007000006192D00496300110002         00000000010000000000000300000000000000F   000000000000                
60I20150529BE1013101007000006192D00496400110003         000000000100000000000002000000000002001200000000000024                
60I20150529BE1013101007000006192D00496500110005         000000000100000000000006000000000006001800000000000108                
60I20150529BE1013101007000006192D00496600110005         000000001000000000000060000000000060001800000000001080                
60I20150529BE1013101007000006192D00496600210002         00000000010000000000000300000000000000F   000000000000                
60I20150529BE1013101007000006192D00496800110005         000000000100000000000006000000000006001800000000000108                
60I20150529BE1013101007000006192D00496800210004         000000000100000000000003600000000003601200000000000043                
60I20150529BE1013101007000006192D00496900110002         00000000010000000000000300000000000000F   000000000000                
60I20150529BE1013101007000006192D00497100110003         000000000100000000000002000000000002001200000000000024                
60I20150529BE1013101007000006192D00497100210005         000000000100000000000006000000000006001800000000000108                
60I20150529BE1013101007000006192D00497300110005         000000000100000000000006000000000006001800000000000108                
60I20150529BE1013101007000006192D00497600110002         00000000020000000000000600000000000000F   000000000000                
60I20150529BE1013101007000006192D00497600210005         000000000600000000000036000000000036001800000000000648                
60I20150529BE1013101007000006192D00497700110002         00000000020000000000000600000000000000F   000000000000                
60I20150529BE1013101007000006192D00497700210004         000000000300000000000012000000000012001200000000000144                
60I20150529BE1013101007000006192D00497700310005         000000000500000000000030000000000030001800000000000540                
60I20150529BE1013101007000006192D00497800110005         000000001000000000000060000000000060001800000000001080                
60I20150529BE1013101007000006192D00498000110002         00000000010000000000000300000000000000F   000000000000                
60I20150529BE1013101007000006192D00498100110005         000000000100000000000006000000000006001800000000000108                
60I20150529BE1013101007000006192D00498100210002         00000000010000000000000300000000000000F   000000000000                
60M20150531BE1013101007000006190012D00500600501800015400100000000000020000000002033245444                                     
60A20150531BE101310100700000619F   000000002400                                                                               
60A20150531BE1013101007000006191200000000002800                                                                               
60A20150531BE1013101007000006191800000000009600                                                                               
60D20150531BE10131010070000061910002         000000000100000000000000003000000000000000000F   0000000000000                   
60D20150531BE10131010070000061910002         000000000100000000000000003000000000000000000F   0000000000000                   
60D20150531BE10131010070000061910002         000000000100000000000000003000000000000000000F   0000000000000                   
60D20150531BE10131010070000061910002         000000000100000000000000003000000000000000000F   0000000000000                   
60D20150531BE10131010070000061910003         00000000010000000000000000200000000000000020012000000000000024                   
60D20150531BE10131010070000061910003         00000000020000000000000000400000000000000040012000000000000048                   
60D20150531BE10131010070000061910003         00000000010000000000000000200000000000000020012000000000000024                   
60D20150531BE10131010070000061910003         00000000010000000000000000200000000000000020012000000000000024                   
60D20150531BE10131010070000061910004         00000000010000000000000000400000000000000040012000000000000048                   
60D20150531BE10131010070000061910005         00000000030000000000000001800000000000000180018000000000000324                   
60D20150531BE10131010070000061910005         00000000010000000000000000600000000000000060018000000000000108                   
60D20150531BE10131010070000061910005         00000000030000000000000001800000000000000180018000000000000324                   
60D20150531BE10131010070000061910005         00000000010000000000000000600000000000000060018000000000000108                   
60I20150531BE1013101007000006192D00500700110002         00000000010000000000000300000000000000F   000000000000                
60I20150531BE1013101007000006192D00500700210005         000000000300000000000018000000000018001800000000000324                
60I20150531BE1013101007000006192D00500800110004         000000000100000000000004000000000004001200000000000048                
60I20150531BE1013101007000006192D00500900110002         00000000010000000000000300000000000000F   000000000000                
60I20150531BE1013101007000006192D00500900210003         000000000100000000000002000000000002001200000000000024                
60I20150531BE1013101007000006192D00500900310005         000000000100000000000006000000000006001800000000000108                
60I20150531BE1013101007000006192D00501000110002         00000000010000000000000300000000000000F   000000000000                
60I20150531BE1013101007000006192D00501100110005         000000000300000000000018000000000018001800000000000324                
60I20150531BE1013101007000006192D00501100210003         000000000200000000000004000000000004001200000000000048                
60I20150531BE1013101007000006192D00501600110005         000000000100000000000006000000000006001800000000000108                
60I20150531BE1013101007000006192D00501600210002         00000000010000000000000300000000000000F   000000000000                
60I20150531BE1013101007000006192D00501600310003         000000000100000000000002000000000002001200000000000024                
60I20150531BE1013101007000006192D00501800110003         000000000100000000000002000000000002001200000000000024                
60M20150601BE1013101007000006190012D00503700504000015500100000000000020000000002033263344                                     
60A20150601BE1013101007000006191200000000000400                                                                               
60A20150601BE1013101007000006191800000000001200                                                                               
60A20150601BE101310100700000619F   000000001800                                                                               
60D20150601BE10131010070000061910002         000000000100000000000000003000000000000000000F   0000000000000                   
60D20150601BE10131010070000061910002         000000000100000000000000003000000000000000000F   0000000000000                   
60D20150601BE10131010070000061910002         000000000100000000000000003000000000000000000F   0000000000000                   
60D20150601BE10131010070000061910003         00000000010000000000000000200000000000000020012000000000000024                   
60D20150601BE10131010070000061910005         00000000010000000000000000600000000000000060018000000000000108                   
60I20150601BE1013101007000006192D00502900110002         00000000010000000000000300000000000000F   000000000000                
60I20150601BE1013101007000006192D00503000110003         000000000100000000000002000000000002001200000000000024                
60I20150601BE1013101007000006192D00503200110002         00000000010000000000000300000000000000F   000000000000                
60I20150601BE1013101007000006192D00503200210005         000000000100000000000006000000000006001800000000000108                
60I20150601BE1013101007000006192D00503800110002         00000000010000000000000300000000000000F   000000000000                
60M20150609BE1013101007000006190012D00509500511000015800100000000000020000000002033276904                                     
60A20150609BE1013101007000006191200000000001200                                                                               
60A20150609BE101310100700000619F   000000001800                                                                               
60A20150609BE1013101007000006191800000000002400                                                                               
60D20150609BE10131010070000061910002         000000000100000000000000003000000000000000000F   0000000000000                   
60D20150609BE10131010070000061910002         000000000100000000000000003000000000000000000F   0000000000000                   
60D20150609BE10131010070000061910002         000000000100000000000000003000000000000000000F   0000000000000                   
60D20150609BE10131010070000061910003         00000000010000000000000000200000000000000020012000000000000024                   
60D20150609BE10131010070000061910004         00000000010000000000000000400000000000000040012000000000000048                   
60D20150609BE10131010070000061910005         00000000010000000000000000600000000000000060018000000000000108                   
60D20150609BE10131010070000061910005         00000000010000000000000000600000000000000060018000000000000108                   
60I20150609BE1013101007000006192D00509900110002         00000000010000000000000300000000000000F   000000000000                
60I20150609BE1013101007000006192D00510100110002         00000000010000000000000300000000000000F   000000000000                
60I20150609BE1013101007000006192D00510100210005         000000000100000000000006000000000006001800000000000108                
60I20150609BE1013101007000006192D00510300110003         000000000100000000000002000000000002001200000000000024                
60I20150609BE1013101007000006192D00510500110002         00000000010000000000000300000000000000F   000000000000                
60I20150609BE1013101007000006192D00510600110005         000000000100000000000006000000000006001800000000000108                
60I20150609BE1013101007000006192D00510800110004         000000000100000000000004000000000004001200000000000048                
60M20150610BE1013101007000006190012D00512100513000015900100000000000020000000002033293204                                     
60A20150610BE1013101007000006191200000000002000                                                                               
60A20150610BE101310100700000619F   000000003000                                                                               
60A20150610BE1013101007000006191800000000027600                                                                               
60D20150610BE10131010070000061910002         000000000100000000000000003000000000000000000F   0000000000000                   
60D20150610BE10131010070000061910002         000000000100000000000000003000000000000000000F   0000000000000                   
60D20150610BE10131010070000061910002         000000000100000000000000003000000000000000000F   0000000000000                   
60D20150610BE10131010070000061910002         000000000200000000000000006000000000000000000F   0000000000000                   
60D20150610BE10131010070000061910003         00000000010000000000000000200000000000000020012000000000000024                   
60D20150610BE10131010070000061910003         00000000010000000000000000200000000000000020012000000000000024                   
60D20150610BE10131010070000061910003         00000000010000000000000000200000000000000020012000000000000024                   
60D20150610BE10131010070000061910004         00000000010000000000000000400000000000000040012000000000000048                   
60D20150610BE10131010070000061910005         00000000010000000000000000600000000000000060018000000000000108                   
60D20150610BE10131010070000061910005         00000000100000000000000006000000000000000600018000000000001080                   
60D20150610BE10131010070000061910005         00000000010000000000000000600000000000000060018000000000000108                   
60D20150610BE10131010070000061910005         00000000010000000000000000600000000000000060018000000000000108                   
60D20150610BE10131010070000061910005         00000000100000000000000006000000000000000600018000000000001080                   
60I20150610BE1013101007000006192D00511300110002         00000000010000000000000300000000000000F   000000000000                
60I20150610BE1013101007000006192D00511300210003         000000000100000000000002000000000002001200000000000024                
60I20150610BE1013101007000006192D00511300310004         000000000100000000000004000000000004001200000000000048                
60I20150610BE1013101007000006192D00511300410005         000000000100000000000006000000000006001800000000000108                
60I20150610BE1013101007000006192D00511500110002         00000000010000000000000300000000000000F   000000000000                
60I20150610BE1013101007000006192D00511700110003         000000000100000000000002000000000002001200000000000024                
60I20150610BE1013101007000006192D00512200110002         00000000010000000000000300000000000000F   000000000000                
60I20150610BE1013101007000006192D00512200210005         000000001000000000000060000000000060001800000000001080                
60I20150610BE1013101007000006192D00512300110003         000000000100000000000002000000000002001200000000000024                
60I20150610BE1013101007000006192D00512300210005         000000000100000000000006000000000006001800000000000108                
60I20150610BE1013101007000006192D00512400110005         000000000100000000000006000000000006001800000000000108                
60I20150610BE1013101007000006192D00512500110002         00000000020000000000000600000000000000F   000000000000                
60I20150610BE1013101007000006192D00512500210005         000000001000000000000060000000000060001800000000001080                
60M20150611BE1013101007000006190012D00514600515800016000100000000000020000000002033303504                                     
60A20150611BE1013101007000006191200000000003200                                                                               
60A20150611BE101310100700000619F   000000004200                                                                               
60A20150611BE1013101007000006191800000000013200                                                                               
60D20150611BE10131010070000061910002         000000000200000000000000005400000000000000000F   0000000000000                   
60D20150611BE10131010070000061910002         000000000100000000000000003000000000000000000F   0000000000000                   
60D20150611BE10131010070000061910002         000000000100000000000000003000000000000000000F   0000000000000                   
60D20150611BE10131010070000061910002         000000000100000000000000003000000000000000000F   0000000000000                   
60D20150611BE10131010070000061910002         000000000200000000000000006000000000000000000F   0000000000000                   
60D20150611BE10131010070000061910003         00000000010000000000000000200000000000000020012000000000000024                   
60D20150611BE10131010070000061910003         00000000010000000000000000200000000000000020012000000000000024                   
60D20150611BE10131010070000061910003         00000000010000000000000000200000000000000020012000000000000024                   
60D20150611BE10131010070000061910003         00000000010000000000000000200000000000000020012000000000000024                   
60D20150611BE10131010070000061910004         00000000010000000000000000400000000000000040012000000000000048                   
60D20150611BE10131010070000061910004         00000000010000000000000000400000000000000040012000000000000048                   
60D20150611BE10131010070000061910005         00000000010000000000000000600000000000000060018000000000000108                   
60D20150611BE10131010070000061910005         00000000100000000000000006000000000000000600018000000000001080                   
60I20150611BE1013101007000006192D00513800110003         000000000100000000000002000000000002001200000000000024                
60I20150611BE1013101007000006192D00514000110002         00000000020000000000000540000000000000F   000000000000                
60I20150611BE1013101007000006192D00514000210003         000000000100000000000002000000000002001200000000000024                
60I20150611BE1013101007000006192D00514000310004         000000000100000000000004000000000004001200000000000048                
60I20150611BE1013101007000006192D00514000410005         000000000100000000000006000000000006001800000000000108                
60I20150611BE1013101007000006192D00514200110002         00000000010000000000000300000000000000F   000000000000                
60I20150611BE1013101007000006192D00514700110003         000000000100000000000002000000000002001200000000000024                
60I20150611BE1013101007000006192D00514800110002         00000000010000000000000300000000000000F   000000000000                
60I20150611BE1013101007000006192D00514800210004         000000000100000000000004000000000004001200000000000048                
60I20150611BE1013101007000006192D00514900110002         00000000010000000000000300000000000000F   000000000000                
60I20150611BE1013101007000006192D00515600110002         00000000020000000000000600000000000000F   000000000000                
60I20150611BE1013101007000006192D00515600210003         000000000100000000000002000000000002001200000000000024                
60I20150611BE1013101007000006192D00515700110005         000000001000000000000060000000000060001800000000001080                
60M20150612BE1013101007000006190012D00516800518700016100100000000000020000000002033310604                                     
60A20150612BE1013101007000006191200000000001600                                                                               
60A20150612BE101310100700000619F   000000003000                                                                               
60A20150612BE1013101007000006191800000000009600                                                                               
60D20150612BE10131010070000061910002         000000000100000000000000003000000000000000000F   0000000000000                   
60D20150612BE10131010070000061910002         000000000100000000000000003000000000000000000F   0000000000000                   
60D20150612BE10131010070000061910002         000000000100000000000000003000000000000000000F   0000000000000                   
60D20150612BE10131010070000061910002         000000000100000000000000003000000000000000000F   0000000000000                   
60D20150612BE10131010070000061910002         000000000100000000000000003000000000000000000F   0000000000000                   
60D20150612BE10131010070000061910003         00000000010000000000000000200000000000000020012000000000000024                   
60D20150612BE10131010070000061910003         00000000010000000000000000200000000000000020012000000000000024                   
60D20150612BE10131010070000061910004         00000000010000000000000000400000000000000040012000000000000048                   
60D20150612BE10131010070000061910005         00000000010000000000000000600000000000000060018000000000000108                   
60D20150612BE10131010070000061910005         00000000020000000000000001200000000000000120018000000000000216                   
60D20150612BE10131010070000061910005         00000000010000000000000000600000000000000060018000000000000108                   
60D20150612BE10131010070000061910005         00000000020000000000000001200000000000000120018000000000000216                   
60D20150612BE10131010070000061910005         00000000010000000000000000600000000000000060018000000000000108                   
60D20150612BE10131010070000061910005         00000000010000000000000000600000000000000060018000000000000108                   
60I20150612BE1013101007000006192D00516100110002         00000000010000000000000300000000000000F   000000000000                
60I20150612BE1013101007000006192D00516100210005         000000000100000000000006000000000006001800000000000108                
60I20150612BE1013101007000006192D00516400110002         00000000010000000000000300000000000000F   000000000000                
60I20150612BE1013101007000006192D00516400210005         000000000200000000000012000000000012001800000000000216                
60I20150612BE1013101007000006192D00516900110002         00000000010000000000000300000000000000F   000000000000                
60I20150612BE1013101007000006192D00517000110005         000000000100000000000006000000000006001800000000000108                
60I20150612BE1013101007000006192D00517100110004         000000000100000000000004000000000004001200000000000048                
60I20150612BE1013101007000006192D00517200110005         000000000200000000000012000000000012001800000000000216                
60I20150612BE1013101007000006192D00517300110003         000000000100000000000002000000000002001200000000000024                
60I20150612BE1013101007000006192D00517500110003         000000000100000000000002000000000002001200000000000024                
60I20150612BE1013101007000006192D00517600110005         000000000100000000000006000000000006001800000000000108                
60I20150612BE1013101007000006192D00518200110005         000000000100000000000006000000000006001800000000000108                
60I20150612BE1013101007000006192D00518300110002         00000000010000000000000300000000000000F   000000000000                
60I20150612BE1013101007000006192D00518400110002         00000000010000000000000300000000000000F   000000000000                
60M20150613BE1013101007000006190012D00520200521500016200100000000000020000000002033400204                                     
60A20150613BE101310100700000619F   000000006600                                                                               
60A20150613BE1013101007000006191200000000008800                                                                               
60A20150613BE1013101007000006191800000000036000                                                                               
60D20150613BE10131010070000061910002         000000000100000000000000003000000000000000000F   0000000000000                   
60D20150613BE10131010070000061910002         000000000100000000000000003000000000000000000F   0000000000000                   
60D20150613BE10131010070000061910002         000000000200000000000000006000000000000000000F   0000000000000                   
60D20150613BE10131010070000061910002         000000000200000000000000006000000000000000000F   0000000000000                   
60D20150613BE10131010070000061910002         000000000100000000000000003000000000000000000F   0000000000000                   
60D20150613BE10131010070000061910002         000000000200000000000000006000000000000000000F   0000000000000                   
60D20150613BE10131010070000061910003         00000000010000000000000000200000000000000020012000000000000024                   
60D20150613BE10131010070000061910003         00000000010000000000000000200000000000000020012000000000000024                   
60D20150613BE10131010070000061910003         00000000010000000000000000200000000000000020012000000000000024                   
60D20150613BE10131010070000061910003         00000000040000000000000000800000000000000080012000000000000096                   
60D20150613BE10131010070000061910003         00000000010000000000000000200000000000000020012000000000000024                   
60D20150613BE10131010070000061910004         00000000010000000000000000400000000000000040012000000000000048                   
60D20150613BE10131010070000061910004         00000000030000000000000001140000000000000114012000000000000137                   
60D20150613BE10131010070000061910005         00000000010000000000000000600000000000000060018000000000000108                   
60D20150613BE10131010070000061910005         00000000030000000000000001800000000000000180018000000000000324                   
60D20150613BE10131010070000061910005         00000000020000000000000001200000000000000120018000000000000216                   
60D20150613BE10131010070000061910005         00000000010000000000000000600000000000000060018000000000000108                   
60D20150613BE10131010070000061910005         00000000010000000000000000600000000000000060018000000000000108                   
60D20150613BE10131010070000061910005         00000000010000000000000000600000000000000060018000000000000108                   
60D20150613BE10131010070000061910005         00000000100000000000000006000000000000000600018000000000001080                   
60D20150613BE10131010070000061910005         00000000100000000000000005400000000000000540018000000000000972                   
60D20150613BE10131010070000061910005         00000000040000000000000002400000000000000240018000000000000108                   
60I20150613BE1013101007000006192D00519000110002         00000000010000000000000300000000000000F   000000000000                
60I20150613BE1013101007000006192D00519200110003         000000000100000000000002000000000002001200000000000024                
60I20150613BE1013101007000006192D00519400110005         000000000100000000000006000000000006001800000000000108                
60I20150613BE1013101007000006192D00519600110003         000000000100000000000002000000000002001200000000000024                
60I20150613BE1013101007000006192D00519800110003         000000000100000000000002000000000002001200000000000024                
60I20150613BE1013101007000006192D00520300110002         00000000010000000000000300000000000000F   000000000000                
60I20150613BE1013101007000006192D00520300210005         000000000300000000000018000000000018001800000000000324                
60I20150613BE1013101007000006192D00520400110004         000000000100000000000004000000000004001200000000000048                
60I20150613BE1013101007000006192D00520600110002         00000000020000000000000600000000000000F   000000000000                
60I20150613BE1013101007000006192D00520700110005         000000000200000000000012000000000012001800000000000216                
60I20150613BE1013101007000006192D00520800110002         00000000020000000000000600000000000000F   000000000000                
60I20150613BE1013101007000006192D00520800210003         000000000400000000000008000000000008001200000000000096                
60I20150613BE1013101007000006192D00520800310004         000000000300000000000011400000000011401200000000000137                
60I20150613BE1013101007000006192D00520800410005         000000000100000000000006000000000006001800000000000108                
60I20150613BE1013101007000006192D00520900110002         00000000010000000000000300000000000000F   000000000000                
60I20150613BE1013101007000006192D00520900210003         000000000100000000000002000000000002001200000000000024                
60I20150613BE1013101007000006192D00520900310005         000000000100000000000006000000000006001800000000000108                
60I20150613BE1013101007000006192D00521000110002         00000000020000000000000600000000000000F   000000000000                
60I20150613BE1013101007000006192D00521000210005         000000000100000000000006000000000006001800000000000108                
60I20150613BE1013101007000006192D00521100110005         000000001000000000000060000000000060001800000000001080                
60I20150613BE1013101007000006192D00521200110005         000000001000000000000054000000000054001800000000000972                
60I20150613BE1013101007000006192D00521400110005         000000000100000000000006000000000006001800000000000108                
60I20150613BE1013101007000006192D00521400210005         00000000010000000000000600000000000000F   000000000000                
60I20150613BE1013101007000006192D00521400310005         000000000100000000000006000000000006001200000000000072                
60I20150613BE1013101007000006192D00521400410005         000000000100000000000006000000000006001200000000000072                
60M20150615BE1013101007000006190012D00522600525400016300100000000000020000000002033512504                                     
60A20150615BE101310100700000619F   000000021600                                                                               
60A20150615BE1013101007000006191200000000028400                                                                               
60A20150615BE1013101007000006191800000000039600                                                                               
60D20150615BE10131010070000061910002         000000000100000000000000003000000000000000000F   0000000000000                   
60D20150615BE10131010070000061910002         000000000500000000000000015000000000000000000F   0000000000000                   
60D20150615BE10131010070000061910002         000000000100000000000000003000000000000000000F   0000000000000                   
60D20150615BE10131010070000061910002         000000000100000000000000003000000000000000000F   0000000000000                   
60D20150615BE10131010070000061910002         000000000300000000000000009000000000000000000F   0000000000000                   
60D20150615BE10131010070000061910002         000000000100000000000000003000000000000000000F   0000000000000                   
60D20150615BE10131010070000061910002         000000000100000000000000003000000000000000000F   0000000000000                   
60D20150615BE10131010070000061910002         000000001000000000000000030000000000000000000F   0000000000000                   
60D20150615BE10131010070000061910002         000000000200000000000000006000000000000000000F   0000000000000                   
60D20150615BE10131010070000061910002         000000001000000000000000027000000000000000000F   0000000000000                   
60D20150615BE10131010070000061910002         000000000100000000000000003000000000000000000F   0000000000000                   
60D20150615BE10131010070000061910003         00000000020000000000000000400000000000000040012000000000000048                   
60D20150615BE10131010070000061910003         00000000010000000000000000200000000000000020012000000000000024                   
60D20150615BE10131010070000061910003         00000000100000000000000002000000000000000200012000000000000240                   
60D20150615BE10131010070000061910003         00000000320000000000000006400000000000000640012000000000000768                   
60D20150615BE10131010070000061910003         00000000100000000000000002000000000000000200012000000000000240                   
60D20150615BE10131010070000061910003         00000000030000000000000000600000000000000060012000000000000072                   
60D20150615BE10131010070000061910003         00000000010000000000000000200000000000000020012000000000000024                   
60D20150615BE10131010070000061910004         00000000010000000000000000400000000000000040012000000000000048                   
60D20150615BE10131010070000061910004         00000000010000000000000000360000000000000036012000000000000043                   
60D20150615BE10131010070000061910004         00000000010000000000000000400000000000000040012000000000000048                   
60D20150615BE10131010070000061910004         00000000020000000000000000800000000000000080012000000000000096                   
60D20150615BE10131010070000061910004         00000000010000000000000000400000000000000040012000000000000048                   
60D20150615BE10131010070000061910005         00000000010000000000000000600000000000000060018000000000000108                   
60D20150615BE10131010070000061910005         00000000010000000000000000600000000000000060018000000000000108                   
60D20150615BE10131010070000061910005         00000000010000000000000000600000000000000060018000000000000108                   
60D20150615BE10131010070000061910005         00000000020000000000000001200000000000000120018000000000000108                   
60D20150615BE10131010070000061910005         00000000070000000000000004200000000000000420018000000000000756                   
60D20150615BE10131010070000061910005         00000000100000000000000006000000000000000600018000000000001080                   
60D20150615BE10131010070000061910005         00000000100000000000000006000000000000000600018000000000001080                   
60D20150615BE10131010070000061910005         00000000010000000000000000600000000000000060018000000000000108                   
60I20150615BE1013101007000006192D00521800110002         00000000010000000000000300000000000000F   000000000000                
60I20150615BE1013101007000006192D00521800210005         000000000100000000000006000000000006001800000000000108                
60I20150615BE1013101007000006192D00522000110003         000000000200000000000004000000000004001200000000000048                
60I20150615BE1013101007000006192D00522200110002         00000000050000000000001500000000000000F   000000000000                
60I20150615BE1013101007000006192D00522200210004         000000000100000000000004000000000004001200000000000048                
60I20150615BE1013101007000006192D00522200310005         000000000100000000000006000000000006001800000000000108                
60I20150615BE1013101007000006192D00522700110002         00000000010000000000000300000000000000F   000000000000                
60I20150615BE1013101007000006192D00522700210005         000000000100000000000006000000000006001800000000000108                
60I20150615BE1013101007000006192D00522800110002         00000000010000000000000300000000000000F   000000000000                
60I20150615BE1013101007000006192D00522800210004         000000000100000000000003600000000003601200000000000043                
60I20150615BE1013101007000006192D00522900110005         000000000100000000000006000000000006001800000000000108                
60I20150615BE1013101007000006192D00522900210005         000000000100000000000006000000000006001800000000000108                
60I20150615BE1013101007000006192D00523000110003         000000000100000000000002000000000002001200000000000024                
60I20150615BE1013101007000006192D00523200110003         000000001000000000000020000000000020001200000000000240                
60I20150615BE1013101007000006192D00523300110002         00000000030000000000000900000000000000F   000000000000                
60I20150615BE1013101007000006192D00524000110004         000000000100000000000004000000000004001200000000000048                
60I20150615BE1013101007000006192D00524100110002         00000000010000000000000300000000000000F   000000000000                
60I20150615BE1013101007000006192D00524100210003         000000003200000000000064000000000064001200000000000768                
60I20150615BE1013101007000006192D00524200110002         00000000010000000000000300000000000000F   000000000000                
60I20150615BE1013101007000006192D00524200210004         000000000200000000000008000000000008001200000000000096                
60I20150615BE1013101007000006192D00524200310005         000000000700000000000042000000000042001800000000000756                
60I20150615BE1013101007000006192D00524300110002         00000000100000000000003000000000000000F   000000000000                
60I20150615BE1013101007000006192D00524300210005         000000001000000000000060000000000060001800000000001080                
60I20150615BE1013101007000006192D00524300310003         000000001000000000000020000000000020001200000000000240                
60I20150615BE1013101007000006192D00524400110002         00000000020000000000000600000000000000F   000000000000                
60I20150615BE1013101007000006192D00524400210003         000000000300000000000006000000000006001200000000000072                
60I20150615BE1013101007000006192D00524400310005         000000001000000000000060000000000060001800000000001080                
60I20150615BE1013101007000006192D00524500110002         00000000100000000000002700000000000000F   000000000000                
60I20150615BE1013101007000006192D00524600110005         000000000100000000000006000000000006001800000000000108                
60I20150615BE1013101007000006192D00524800110004         000000000100000000000004000000000004001200000000000048                
60I20150615BE1013101007000006192D00525000110002         00000000010000000000000300000000000000F   000000000000                
60I20150615BE1013101007000006192D00525200110003         000000000100000000000002000000000002001200000000000024                
60M20150616BE1013101007000006190012D00525900528200016400100000000000020000000002033536324                                     
60A20150616BE101310100700000619F   000000002400                                                                               
60A20150616BE1013101007000006191200000000015200                                                                               
60A20150616BE1013101007000006191800000000030000                                                                               
60D20150616BE10131010070000061910002         000000000100000000000000003000000000000000000F   0000000000000                   
60D20150616BE10131010070000061910002         000000000100000000000000003000000000000000000F   0000000000000                   
60D20150616BE10131010070000061910002         000000000100000000000000003000000000000000000F   0000000000000                   
60D20150616BE10131010070000061910002         000000000100000000000000003000000000000000000F   0000000000000                   
60D20150616BE10131010070000061910003         00000000010000000000000000200000000000000020012000000000000024                   
60D20150616BE10131010070000061910003         00000000010000000000000000200000000000000020012000000000000024                   
60D20150616BE10131010070000061910003         00000000010000000000000000200000000000000020012000000000000024                   
60D20150616BE10131010070000061910003         00000000010000000000000000200000000000000020012000000000000024                   
60D20150616BE10131010070000061910003         00000000010000000000000000220000000000000022012000000000000026                   
60D20150616BE10131010070000061910003         00000000010000000000000000200000000000000020012000000000000024                   
60D20150616BE10131010070000061910004         00000000010000000000000000400000000000000040012000000000000048                   
60D20150616BE10131010070000061910004         00000000010000000000000000400000000000000040012000000000000048                   
60D20150616BE10131010070000061910004         00000000010000000000000000400000000000000040012000000000000048                   
60D20150616BE10131010070000061910004         00000000130000000000000005200000000000000520012000000000000624                   
60D20150616BE10131010070000061910005         00000000110000000000000006600000000000000660018000000000000108                   
60D20150616BE10131010070000061910005         00000000100000000000000006000000000000000600018000000000001080                   
60D20150616BE10131010070000061910005         00000000010000000000000000600000000000000060018000000000000108                   
60D20150616BE10131010070000061910005         00000000010000000000000000600000000000000060018000000000000108                   
60D20150616BE10131010070000061910005         00000000020000000000000001200000000000000120018000000000000108                   
60I20150616BE1013101007000006192D00525800110002         00000000010000000000000300000000000000F   000000000000                
60I20150616BE1013101007000006192D00525800210003         000000000100000000000002000000000002001200000000000024                
60I20150616BE1013101007000006192D00526100110002         00000000010000000000000300000000000000F   000000000000                
60I20150616BE1013101007000006192D00526100210003         000000000100000000000002000000000002001200000000000024                
60I20150616BE1013101007000006192D00526200110002         00000000010000000000000300000000000000F   000000000000                
60I20150616BE1013101007000006192D00526300110004         000000000100000000000004000000000004001200000000000048                
60I20150616BE1013101007000006192D00526400110005         000000000100000000000006000000000006001800000000000108                
60I20150616BE1013101007000006192D00526400210003         000000000100000000000002000000000002001200000000000024                
60I20150616BE1013101007000006192D00526400310005         000000001000000000000060000000000060001800000000001080                
60I20150616BE1013101007000006192D00526500110005         000000001000000000000060000000000060001800000000001080                
60I20150616BE1013101007000006192D00526600110002         00000000010000000000000300000000000000F   000000000000                
60I20150616BE1013101007000006192D00526800110005         000000000100000000000006000000000006001800000000000108                
60I20150616BE1013101007000006192D00526900110005         000000000100000000000006000000000006001800000000000108                
60I20150616BE1013101007000006192D00527100110003         000000000100000000000002000000000002001200000000000024                
60I20150616BE1013101007000006192D00527300110003         000000000100000000000002200000000002201200000000000026                
60I20150616BE1013101007000006192D00527500110004         000000000100000000000004000000000004001200000000000048                
60I20150616BE1013101007000006192D00527600110003         000000000100000000000002000000000002001200000000000024                
60I20150616BE1013101007000006192D00527800110004         000000000100000000000004000000000004001200000000000048                
60I20150616BE1013101007000006192D00528000110005         000000000100000000000006000000000006001800000000000108                
